:100000000C94B1000C94B8050C94CE000C94CE0066
:100010000C94CE000C94CE000C94CE000C94CE0028
:100020000C94CE000C94CA050C94CE000C94CE0017
:100030000C94CE000C94CE000C94CE000C94CE0008
:100040000C94CE000C94CE000C94CE000C94CE00F8
:100050000C94CE000C94CE000C94CE000C94CE00E8
:100060000C94CE000C94CE0000407A10F35A00A0FD
:10007000724E18090010A5D4E80000E87648170071
:1000800000E40B54020000CA9A3B000000E1F505B1
:10009000000080969800000040420F000000A086FB
:1000A00001000000102700000000E803000000002D
:1000B0006400000000000A000000000001000000D1
:1000C00000002C76D888DC674F0823DFC1DFAE59EB
:1000D000E1B1B796E5E3E453C63AE651997696E87E
:1000E000E6C28426EB898C9B62ED407C6FFCEFBC02
:1000F0009C9F40F2BAA56FA5F490055A2AF75C932D
:100100006B6CF9676DC11BFCE0E40D47FEF520E662
:10011000B500D0ED902E0300943577050080841E45
:10012000080000204E0A000000C80C333333330FA0
:10013000986E12831141EF8D2114893BE65516CF3D
:10014000FEE6DB18D1844B381BF77C1D901DA4BB49
:10015000E424203284725E228100C9F124ECA1E5FE
:100160003D2711241FBECFEFD8E0DEBFCDBF11E089
:10017000A0E0B1E0ECEFF4E102C005900D92AA36E8
:10018000B107D9F721E0AAE6B1E001C01D92A3377B
:10019000B207E1F70E94A2050C947C0A0C940000BF
:1001A0005F9888230CF45F9A5E9886FD5E9A5D984E
:1001B00085FD5D9A5C9884FD5C9A2D9A85E08A9510
:1001C000F1F700002D9885E08A95F1F70000089579
:1001D000CF93DF93289A2D98C82FD0E0CE010E94AC
:1001E000D000CE0182959295907F9827807F9827A6
:1001F0000E94D000DF91CF9108950F931F93CF936A
:10020000DF9300D0CDB7DEB78C011A821982E98165
:10021000FA81E80FF91F80818823D1F0E981FA8102
:10022000E00FF11F808190E00E94E80089819A81AF
:1002300001969A8389838FE391E00197F1F700C0DB
:100240000000E981FA81E00FF11F80818111E6CF82
:100250000F900F90DF91CF911F910F910895CF9341
:10026000DF9328982D98C82FD0E0CE010E94D000AF
:10027000CE0182959295907F9827807F98270E9443
:10028000D000DF91CF9108952FEF81EE94E02150BF
:1002900080409040E1F700C0000028982D9880E34E
:1002A00090E00E94D0008FE39CE90197F1F700C035
:1002B000000080E390E00E94D0008FE193E001977E
:1002C000F1F700C0000080E390E00E94D0008FE1D1
:1002D00093E00197F1F700C0000088E290E00E94EF
:1002E000D0008FE391E00197F1F700C0000088E2B1
:1002F00090E00E942F018FE391E00197F1F700C099
:10030000000088E090E00E942F018FE391E00197C8
:10031000F1F700C0000081E090E00E942F018FE71C
:100320009EE30197F1F700C0000086E090E00E9494
:100330002F018FE391E00197F1F700C000008CE0FE
:1003400090E00E942F018FE391E00197F1F700C048
:100350000000089587B1887F87B988B1876088B920
:10036000089586B196B180FD0AC091FF08C0309B08
:10037000FECF319923C081E0809372011FC086B106
:1003800096B181FD0AC090FF08C0319BFECF309925
:1003900015C082E08093720111C086B196B180FDD4
:1003A0000DC091FD0BC0309BFECF319904C081E0A0
:1003B0008093720103C082E080937201329903C07E
:1003C00083E080937201089594B1966094B92FEF01
:1003D0003FEF3093870020938600682F70E0762FE0
:1003E0006627072E000C880B990B0E94910623E3C9
:1003F00033E343E250E40E9446070E946006709394
:10040000890060938800E0E8F0E08081806A808362
:10041000808182608083E1E8F0E080818861808370
:100420008081816080830895CF92DF92EF92FF9266
:100430000F931F93809100018111BFC080917201C1
:10044000813009F049C01092720184E90E942F01A5
:100450008FE391E00197F1F700C0000081E091E0A7
:100460000E94FD008FE391E00197F1F700C00000CA
:1004700084E90E942F018FE391E00197F1F700C01A
:10048000000080917001882321F0815080937001D9
:1004900003C084E680937001809170010E94E401A2
:1004A000809170014AE050E061E771E090E00E94C5
:1004B000D30786E191E00E94FD0081E791E00E9470
:1004C000FD0088E491E00E94FD008FE391E0019738
:1004D000F1F700C000004AC0823009F047C0109216
:1004E000720184E90E942F018FE391E00197F1F7F7
:1004F00000C0000081E091E00E94FD008FE391E0E8
:100500000197F1F700C0000084E90E942F018FE3FA
:1005100091E00197F1F700C00000809170018436EE
:1005200020F48F5F8093700102C01092700180915F
:1005300070010E94E401809170014AE050E061E79F
:1005400071E090E00E94D30786E191E00E94FD00F7
:1005500081E791E00E94FD0088E491E00E94FD00A7
:100560008FE391E00197F1F700C0000080917201E4
:10057000833009F0F3C11092720181E08093000191
:1005800084ED0E942F018FE391E00197F1F700C005
:100590000000809100014AE050E06EE671E090E0DA
:1005A0000E94D3078EE691E00E94FD008FE391E068
:1005B0000197F1F700C00000D1C1813009F003C1FB
:1005C00080917201813009F06CC01092720180EC50
:1005D0000E942F018FE391E00197F1F700C0000026
:1005E00081E091E00E94FD008FE391E00197F1F737
:1005F00000C0000080EC0E942F018FE391E0019782
:10060000F1F700C000002DEC3CEC4CEC5DE3609198
:100610006A0170916B0180916C0190916D010E9453
:10062000EE056B017C0120E030E0A9010E945B0631
:1006300018166CF080E090E0A8ECB2E480936A01B8
:1006400090936B01A0936C01B0936D0108C0C092B0
:100650006A01D0926B01E0926C01F0926D016091A1
:100660006A0170916B0180916C0190916D0101E7BD
:1006700011E021E030E043E050E00E94B30783E264
:1006800091E00E94FD00C8010E94FD0087E591E015
:100690000E94FD008FE391E00197F1F700C0000098
:1006A0006BC0823009F068C01092720180EC0E9429
:1006B0002F018FE391E00197F1F700C0000081E086
:1006C00091E00E94FD008FE391E00197F1F700C0F7
:1006D000000080EC0E942F018FE391E00197F1F779
:1006E00000C000002DEC3CEC4CEC5DE360916A0135
:1006F00070916B0180916C0190916D010E94EF05EA
:100700006B017C0120E030E048EC52E40E9441079C
:1007100088234CF010926A0110926B0110926C01C8
:1007200010926D0108C0C0926A01D0926B01E092F4
:100730006C01F0926D0160916A0170916B01809182
:100740006C0190916D0101E711E021E030E043E0A0
:1007500050E00E94B30783E291E00E94FD00C801CF
:100760000E94FD0087E591E00E94FD008FE391E08B
:100770000197F1F700C0000080917201833009F009
:10078000EDC01092720182E08093000184ED0E941E
:100790002F018FE391E00197F1F700C000008091F5
:1007A00000014AE050E06EE671E090E00E94D3075D
:1007B0008EE691E00E94FD008FE391E00197F1F752
:1007C00000C00000CBC0823009F0C8C08091720127
:1007D000813009F04AC01092720180E80E942F0116
:1007E0008FE391E00197F1F700C0000081E091E014
:1007F0000E94FD008FE391E00197F1F700C0000037
:1008000080E80E942F018FE391E00197F1F700C08B
:10081000000080916F01282F30E02A503109121614
:10082000130624F084E680936F0103C08A508093FE
:100830006F0180916F014AE050E061E771E090E064
:100840000E94D30780E391E00E94FD0081E791E0E0
:100850000E94FD0088E491E00E94FD008FE391E09A
:100860000197F1F700C0000055C0823009F052C076
:100870001092720180E80E942F018FE391E00197AE
:10088000F1F700C0000081E091E00E94FD008FE3DD
:1008900091E00197F1F700C0000080E80E942F016D
:1008A0008FE391E00197F1F700C0000020916F0104
:1008B000822F90E00A96843691051CF010926F0109
:1008C00003C0265F20936F0180916F014AE050E0E2
:1008D00061E771E090E00E94D30780E391E00E941D
:1008E000FD0081E791E00E94FD0088E491E00E9414
:1008F000FD0088E491E0992720E331E0820F911D0B
:100900008F589E4F0E94FD008FE391E00197F1F711
:1009100000C0000080917201833001F510927201D5
:100920001092000184ED0E942F018FE391E0019766
:10093000F1F700C00000809100014AE050E06EE64F
:1009400071E090E00E94D3078EE691E00E94FD00E6
:100950008FE391E00197F1F700C000001F910F9124
:10096000FF90EF90DF90CF9008958FEF84B985B915
:1009700089E284B981E285B988E58CBD089528981B
:100980009EBD0DB407FEFDCF8EBD0DB407FEFDCF9D
:10099000289A0895CF92DF92EF92FF920F931F93C0
:1009A000CF93DF938B01BC0180E090E00E948F0623
:1009B0002FE632E143E852E40E9446070E946006B7
:1009C0006B017C010B2EBEE0F694E794D794C7949C
:1009D000BA95D1F7B02D2FE3D2227F7380ECD81ACD
:1009E000EB01D05C0115110529F480E090E20E9432
:1009F000BF0407C00130110521F480E098E20E9495
:100A0000BF04CE010E94BF04C6010E94BF04DF9153
:100A1000CF911F910F91FF90EF90DF90CF900895AD
:100A200080E091E20E94BF0488E892E70E94BF0440
:100A300087E190E40E94BF048AEE9CEA0E94BF0412
:100A400083E190E80E94BF0480E090EC0E94BF0424
:100A500080E090EE0E94BF0488EC90E20E94BF0408
:100A6000089580EF8AB9E898E9E6F0E08081836034
:100A70008083E098E89A0895E1EBF0E08081876058
:100A80008083E0E7F0E0808181608083089581E0E9
:100A90000E942F018FE79EE30197F1F700C000004D
:100AA00080E80E942F018FE391E00197F1F700C0E9
:100AB00000008CE391E00E94FD008FE391E001973C
:100AC000F1F700C0000080EC0E942F018FE391E05D
:100AD0000197F1F700C000008AE491E00E94FD0058
:100AE0008FE391E00197F1F700C0000084E90E94D4
:100AF0002F018FE391E00197F1F700C000008AE534
:100B000091E00E94FD008FE391E00197F1F700C0B2
:100B1000000008958FEF84B90E94AA011092B200DC
:100B20000E943C050E9431050E94B5040E941005F8
:100B300060E070E088EE93E00E94CA0478940E941E
:100B400047050895579A569A559A549A259A209A85
:100B50000E94440180EC0E942F018FE391E00197F5
:100B6000F1F700C000000E948A050E941402FDCF28
:100B70001F920F920FB60F9211248F939F9395B1EE
:100B800084E0892785B99F918F910F900FBE0F90B8
:100B90001F9018951F920F920FB60F9211242F934A
:100BA0003F934F935F936F937F938F939F93AF93F5
:100BB000BF93EF93FF930E94B101FF91EF91BF911B
:100BC000AF919F918F917F916F915F914F913F91E5
:100BD0002F910F900FBE0F901F9018955058BB2764
:100BE000AA270E9406060C9407070E94F90638F00F
:100BF0000E94000720F039F49F3F19F426F40C946A
:100C0000F6060EF4E095E7FB0C94F006E92F0E943F
:100C1000180758F3BA17620773078407950720F07F
:100C200079F4A6F50C943A070EF4E0950B2EBA2F42
:100C3000A02D0B01B90190010C01CA01A0011124E2
:100C4000FF27591B99F0593F50F4503E68F11A168E
:100C5000F040A22F232F342F4427585FF3CF46951F
:100C600037952795A795F0405395C9F77EF41F1641
:100C7000BA0B620B730B840BBAF09150A1F0FF0F0B
:100C8000BB1F661F771F881FC2F70EC0BA0F621FF7
:100C9000731F841F48F4879577956795B795F795E7
:100CA0009E3F08F0B0CF9395880F08F09927EE0F7C
:100CB0009795879508950E94CC0608F481E00895E1
:100CC0000E94200788F09F5798F0B92F9927B751B5
:100CD000B0F0E1F0660F771F881F991F1AF0BA95E0
:100CE000C9F714C0B13091F00E943A07B1E00895FD
:100CF0000C943A07672F782F8827B85F39F0B93FEF
:100D0000CCF3869577956795B395D9F73EF4909592
:100D10008095709561957F4F8F4F9F4F0895E89410
:100D200009C097FB3EF490958095709561957F4F33
:100D30008F4F9F4F9923A9F0F92F96E9BB279395E1
:100D4000F695879577956795B795F111F8CFFAF4F1
:100D5000BB0F11F460FF1BC06F5F7F4F8F4F9F4F22
:100D600016C0882311F096E911C0772321F09EE880
:100D7000872F762F05C0662371F096E8862F70E0E6
:100D800060E02AF09A95660F771F881FDAF7880FC0
:100D90009695879597F90895990F0008550FAA0B16
:100DA000E0E8FEEF16161706E807F907C0F012167E
:100DB0001306E407F50798F0621B730B840B950B81
:100DC00039F40A2661F0232B242B252B21F40895D6
:100DD0000A2609F4A140A6958FEF811D811D089573
:100DE00097F99F6780E870E060E008959FEF80ECDE
:100DF000089500240A941616170618060906089581
:100E000000240A9412161306140605060895092EE6
:100E10000394000C11F4882352F0BB0F40F4BF2B55
:100E200011F460FF04C06F5F7F4F8F4F9F4F089595
:100E300057FD9058440F551F59F05F3F71F047958B
:100E4000880F97FB991F61F09F3F79F08795089570
:100E5000121613061406551FF2CF4695F1DF08C08F
:100E6000161617061806991FF1CF869571056105AC
:100E700008940895E894BB2766277727CB0197F954
:100E800008950E94CC0608F48FEF08950E94590738
:100E90000C9407070E94F90638F00E94000720F022
:100EA000952311F00C94F0060C94F60611240C9482
:100EB0003B070E94180770F3959FC1F3950F50E010
:100EC000551F629FF001729FBB27F00DB11D639FFC
:100ED000AA27F00DB11DAA1F649F6627B00DA11DA2
:100EE000661F829F2227B00DA11D621F739FB00D48
:100EF000A11D621F839FA00D611D221F749F3327B8
:100F0000A00D611D231F849F600D211D822F762F50
:100F10006A2F11249F5750409AF0F1F088234AF02D
:100F2000EE0FFF1FBB1F661F771F881F9150504099
:100F3000A9F79E3F510580F00C94F0060C943B07F6
:100F40005F3FE4F3983ED4F3869577956795B79520
:100F5000F795E7959F5FC1F7FE2B880F911D96953A
:100F6000879597F90895EF920F931F93CF93DF938F
:100F7000E80147FD02C034E001C034E1042E000C5A
:100F8000550B57FF03C0519541955109E32E022F90
:100F9000242FAE010E940308CE01DF91CF911F9153
:100FA0000F91EF9008954532510520F4423010F032
:100FB0000C94DE07FB011082CB010895BB274A3059
:100FC00031F4992322F4BDE2909581959F4F0C94C2
:100FD000EA07BB27FB015527AA27880F991FAA1FDD
:100FE000A41710F0A41B83955051B9F7A05DAA3344
:100FF00008F0A95DA193009779F7B111B19311920F
:10100000CB010C94350AA9E0B0E0E9E0F8E00C94DB
:101010004B0A6A01122FB02E2BE3201720F0FF2479
:10102000F394F00E02C02CE3F22E0F2D27E0AE0158
:101030004F5F5F4F0E945D09BC014981842F897019
:10104000813031F0E1FC06C0E0FE06C090E205C050
:101050009DE203C09BE201C090E05E2D507143FF12
:101060003CC0911102C083E001C084E0811718F4F4
:10107000212F281B01C020E051110BC0F601822F47
:1010800030E2882319F031938150FBCFC20ED11C7E
:1010900020E0992329F0D6019C93F60131966F0147
:1010A000C6010396E2FE0AC03EE4D6013C9341E449
:1010B00011964C93119712963C9306C03EE6F601AA
:1010C000308341E641833283FC01322F40E23323F7
:1010D00009F442C041933150FACF42FF44C091110C
:1010E00002C083E001C084E0811718F4212F281B7F
:1010F00001C020E051110BC0F601822F30E288239D
:1011000019F031938150FBCFC20ED11C20E09923FE
:1011100029F0D6019C93F60131966F01C601039622
:10112000E2FE0BC039E4D6013C933EE411963C93B9
:10113000119736E412963C9307C039E6F6013083E6
:101140003EE6318336E63283FC01322F40E2332320
:1011500019F041933150FBCFFC01E20FF11D1082D9
:101160008EEF9FEFA6C021E030E0911102C020E099
:1011700030E0161617061CF4FB01319602C0E1E0C0
:10118000F0E02E0F3F1FBB2021F0EB2DF0E0319659
:1011900002C0E0E0F0E02E0F3F1FE12FF0E02E173D
:1011A0003F071CF4121B212F01C020E08E2D8871F7
:1011B00059F4F601822F30E2882319F031938150DF
:1011C000FBCFC20ED11C20E0992329F0D6019C93BD
:1011D000F60131966F0151110BC0F601822F90E399
:1011E000882319F091938150FBCFC20ED11C20E0CF
:1011F0000F2D060F9A81342F307144FF03C09133B5
:1012000009F40150101624F4093018F008E001C068
:1012100001E0AB0177FF02C040E050E0FB01E41BBE
:10122000F50BA1E0B0E0AC0FBD1FEA0FFB1F8EE293
:10123000A82E4B01801A91080B2D10E011950195F5
:1012400011094F3FBFEF5B0721F4D601AC92119615
:101250006D01641775072CF08416950614F48181CE
:1012600001C080E3415051093196D60111967D01AC
:101270004017510724F0D6018C936701E2CF641721
:10128000750739F4963320F4953319F4311101C000
:1012900081E3F6018083F701822F90E2882319F021
:1012A00091938150FBCFF701E20FF11D108280E096
:1012B00090E02996ECE00C94670A283008F027E0CB
:1012C0003327DA01990F311D87FD91600096610582
:1012D000710539F432602E5F3D9330E32A95E1F7D2
:1012E00008959F3F30F080387105610509F03C5F3B
:1012F0003C5F3D93913008F08068911DDF93CF9360
:101300001F930F93FF92EF92192F987F9695E92FD5
:1013100096959695E90FFF27EE53FF4F99273327B0
:10132000EE24FF24A701E70105900894079428F410
:10133000360FE71EF81E491F511D660F771F881FC5
:10134000991F0694A1F70590079428F4E70EF81E5C
:10135000491F561FC11D770F881F991F661F0694CE
:10136000A1F70590079428F4F80E491F561FC71FD0
:10137000D11D880F991F661F771F0694A1F705904E
:10138000079420F4490F561FC71FD81F990F661FD7
:10139000771F881F0694A9F784911095177041F064
:1013A000D695C79557954795F794E7941A95C1F741
:1013B000E8E6F0E068941590159135916591959166
:1013C00005907FE27395E118F10A430B560BC90BA8
:1013D000D009C0F7E10CF11E431F561FC91FD01DD5
:1013E0007EF4703311F48A95E6CFE894015030F022
:1013F000080F0AF40027021708F4202F2395022F64
:101400007A3328F079E37D932A95E9F710C07D932C
:101410002A9589F6069497956795379517951794A9
:10142000E118F10A430B560BC90BD00998F023952C
:101430007E9173957A3308F070E37C932013B8F7AC
:101440007E9170617D9330F0839571E37D9370E3BD
:101450002A95E1F71124EF90FF900F911F91CF9102
:10146000DF91992787FD90950895DC01FC01672F96
:1014700071917723E1F7329704C07C916D9370836B
:101480006291AE17BF07C8F308952F923F924F9213
:101490005F926F927F928F929F92AF92BF92CF9204
:1014A000DF92EF92FF920F931F93CF93DF93CDB70D
:1014B000DEB7CA1BDB0B0FB6F894DEBF0FBECDBF85
:1014C00009942A88398848885F846E847D848C8456
:1014D0009B84AA84B984C884DF80EE80FD800C815F
:1014E0001B81AA81B981CE0FD11D0FB6F894DEBF42
:0C14F0000FBECDBFED010895F894FFCFB2
:1014FC0001202020202020202020202020202020FF
:10150C0020202020200044757479206379636C6559
:10151C003A20004672657175656E7469653A2000F3
:10152C00416D706C69747564653A2000416D706C26
:10153C0069747564653A203025004672657175656D
:10154C006E7469653A2030487A004475747920636A
:0A155C0079636C653A203025000029
:00000001FF
