:100000000C9434000C9451000C9451000C94510049
:100010000C9451000C9451000C9451000C9451001C
:100020000C9451000C946F010C9451000C945100ED
:100030000C9451000C9425020C9451000C94510026
:100040000C9451000C9451000C9451000C945100EC
:100050000C9451000C9451000C9451000C945100DC
:100060000C9451000C94510011241FBECFEFD8E026
:10007000DEBFCDBF11E0A0E0B1E0E6E7F4E002C0F2
:1000800005900D92AC30B107D9F721E0ACE0B1E0BA
:1000900001C01D92AE30B207E1F70E94E7010C9457
:1000A00039020C9400005F9888230CF45F9A5E98E4
:1000B00086FD5E9A5D9885FD5D9A5C9884FD5C9AEC
:1000C000299A85E08A95F1F70000299885E08A95BC
:1000D000F1F700000895CF93DF93289A2998C82F4D
:1000E000D0E0CE010E945300CE0182959295907F80
:1000F0009827807F98270E945300DF91CF91089521
:100100000F931F93CF93DF9300D0CDB7DEB78C0151
:100110001A821982E981FA81E80FF91F8081882308
:10012000D1F0E981FA81E00FF11F808190E00E9417
:100130006B0089819A8101969A8389838FE391E08C
:100140000197F1F700C00000E981FA81E00FF11F8B
:1001500080818111E6CF0F900F90DF91CF911F9199
:100160000F910895CF93DF9328982998C82FD0E056
:10017000CE010E945300CE0182959295907F9827E0
:10018000807F98270E945300DF91CF9108952FEF31
:1001900081EE94E0215080409040E1F700C00000E3
:1001A0002898299880E390E00E9453008FE39CE90F
:1001B0000197F1F700C0000080E390E00E94530037
:1001C0008FE193E00197F1F700C0000080E390E039
:1001D0000E9453008FE193E00197F1F700C0000007
:1001E00088E290E00E9453008FE391E00197F1F7DD
:1001F00000C0000088E290E00E94B2008FE391E02E
:100200000197F1F700C0000088E090E00E94B20082
:100210008FE391E00197F1F700C0000081E090E0EA
:100220000E94B2008FE79EE30197F1F700C0000043
:1002300086E090E00E94B2008FE391E00197F1F731
:1002400000C000008CE090E00E94B2008FE391E0DB
:100250000197F1F700C00000089587B1887F87B942
:1002600088B1876088B90895309907C080910C01E2
:10027000811103C081E080930C0131990CC0309949
:100280000AC080910C01882331F082E080930D0137
:1002900080930C010EC030990CC0319B0AC0809134
:1002A0000C01882331F081E080930D0182E080937E
:1002B0000C01309B08C0319B06C080910C0182303C
:1002C00011F410920C010895E1EBF0E0808186605A
:1002D0008083E0E7F0E080818160808308951F9251
:1002E0000F920FB60F9211242F933F934F935F936A
:1002F0006F937F938F939F93AF93BF93EF93FF93EE
:100300000E943401FF91EF91BF91AF919F918F9126
:100310007F916F915F914F913F912F910F900FBE01
:100320000F901F90189580910D01813019F595B1AE
:1003300080E1892785B980EC0E94B2008FE391E0CB
:100340000197F1F700C0000081E00E94B2008FE346
:1003500091E00197F1F700C0000081E091E00E9478
:1003600080008FE391E00197F1F700C00000109248
:100370000D010895823011F595B180E1892785B985
:1003800080EC0E94B2008FE391E00197F1F700C08A
:10039000000081E00E94B2008FE391E00197F1F745
:1003A00000C0000086E091E00E9480008FE391E0B1
:1003B0000197F1F700C0000010920D0108950E940E
:1003C0002D011092B2000E94640178940895579A0A
:1003D000569A559A549A219A209A0E94C70080EC06
:1003E0000E94B2008FE391E00197F1F700C0000096
:1003F000809100018F5F809300019FEF23ED80E3E8
:10040000915020408040E1F700C000008FEF84B998
:1004100088E59EE990938500809384001092800087
:1004200083E08093810081E080936F0078940E9444
:10043000DF019FEF21EE84E0915020408040E1F702
:1004400000C000000E949301F4CF1F920F920FB6DC
:100450000F9211248F939F9388E59EE990938500D6
:10046000809384009F918F910F900FBE0F901F90EB
:060470001895F894FFCF7F
:0C0476002C6C6566740072696768740085
:00000001FF
