:100000000C9434000C9485020C9451000C94510013
:100010000C9451000C9451000C9451000C9451001C
:100020000C9451000C9499010C9451000C945100C3
:100030000C9451000C9471020C9451000C945100DA
:100040000C9451000C9451000C9451000C945100EC
:100050000C9451000C9451000C9451000C945100DC
:100060000C9451000C94510011241FBECFEFD8E026
:10007000DEBFCDBF11E0A0E0B1E0E2EBF5E002C0F1
:1000800005900D92A230B107D9F721E0A2E0B1E0CE
:1000900001C01D92A830B207E1F70E9444020C94FF
:1000A000D7020C9400005F9888230CF45F9A5E9846
:1000B00086FD5E9A5D9885FD5D9A5C9884FD5C9AEC
:1000C000299A85E08A95F1F70000299885E08A95BC
:1000D000F1F700000895CF93DF93289A2998C82F4D
:1000E000D0E0CE010E945300CE0182959295907F80
:1000F0009827807F98270E945300DF91CF91089521
:100100000F931F93CF93DF9300D0CDB7DEB78C0151
:100110001A821982E981FA81E80FF91F8081882308
:10012000D1F0E981FA81E00FF11F808190E00E9417
:100130006B0089819A8101969A8389838FE391E08C
:100140000197F1F700C00000E981FA81E00FF11F8B
:1001500080818111E6CF0F900F90DF91CF911F9199
:100160000F910895CF93DF9328982998C82FD0E056
:10017000CE010E945300CE0182959295907F9827E0
:10018000807F98270E945300DF91CF9108952FEF31
:1001900081EE94E0215080409040E1F700C00000E3
:1001A0002898299880E390E00E9453008FE39CE90F
:1001B0000197F1F700C0000080E390E00E94530037
:1001C0008FE193E00197F1F700C0000080E390E039
:1001D0000E9453008FE193E00197F1F700C0000007
:1001E00088E290E00E9453008FE391E00197F1F7DD
:1001F00000C0000088E290E00E94B2008FE391E02E
:100200000197F1F700C0000088E090E00E94B20082
:100210008FE391E00197F1F700C0000081E090E0EA
:100220000E94B2008FE79EE30197F1F700C0000043
:1002300086E090E00E94B2008FE391E00197F1F731
:1002400000C000008CE090E00E94B2008FE391E0DB
:100250000197F1F700C00000089587B1887F87B942
:1002600088B1876088B9089586B196B180FD19C0BC
:1002700091FF17C0309BFECF319903C081E080937E
:10028000070180910501813031F4809106018F5F73
:100290008093060102C01092060181E0809305015F
:1002A000089586B196B181FD12C090FF10C0319BB8
:1002B000FECF309903C082E08093070182E08093F3
:1002C0000501809106018F5F80930601089586B134
:1002D00096B180FD1BC091FD19C0309BFECF3199B6
:1002E0000BC081E080930701809305018091060196
:1002F0008F5F80930601089582E0809307018093C9
:100300000501809106018F5F809306010895109288
:10031000070110920601109205010895E1EBF0E04B
:10032000808187608083E0E7F0E080818160808366
:1003300008951F920F920FB60F9211242F933F939F
:100340004F935F936F937F938F939F93AF93BF93DD
:10035000EF93FF930E943401FF91EF91BF91AF9112
:100360009F918F917F916F915F914F913F912F91CD
:100370000F900FBE0F901F9018958091070181304C
:1003800089F50E94870181E00E94B2008FE79EE319
:100390000197F1F700C0000080EC0E94B2008FE3EB
:1003A00091E00197F1F700C0000080910301909166
:1003B0000601891B90910201891B815080930301E2
:1003C0004AE050E064E071E090E00E94970284E02F
:1003D00091E00E9480008FE391E00197F1F700C067
:1003E00000000895823069F50E94870181E00E9433
:1003F000B2008FE79EE30197F1F700C0000080ECA8
:100400000E94B2008FE391E00197F1F700C0000075
:100410009091030180910201890F8F5F8093030106
:100420004AE050E064E071E090E00E94970284E0CE
:1004300091E00E9480008FE391E00197F1F700C006
:10044000000008958FEF84B988E59EE990938500B8
:10045000809384001092800085E08093810081E089
:1004600080936F000E942D011092B2000E948E01B5
:1004700080EF8AB9E898E9E6F0E0808183608083C4
:10048000E098E89A78940895579A569A559A549A0B
:10049000219A209A0E94C70080EC0E94B2008FE34C
:1004A00091E00197F1F700C00000809100018F5F9B
:1004B000809300019FEF23ED80E391502040804026
:1004C000E1F700C000000E9422029FEF21EE84E0CD
:1004D000915020408040E1F700C000000E94BD0123
:1004E000F4CF1F920F920FB60F9211248F939F9308
:1004F00088E59EE990938500809384009F918F9179
:100500000F900FBE0F901F9018951F920F920FB66D
:100510000F9211248F939F9395B180E1892785B91C
:100520009F918F910F900FBE0F901F90189545329D
:10053000510520F4423010F00C94A202FB0110820D
:10054000CB010895BB274A3031F4992322F4BDE250
:10055000909581959F4F0C94AE02BB27FB015527C8
:10056000AA27880F991FAA1FA41710F0A41B839510
:100570005051B9F7A05DAA3308F0A95DA193009787
:1005800079F7B111B1931192CB010C94C702DC0140
:10059000FC01672F71917723E1F7329704C07C91BA
:1005A0006D9370836291AE17BF07C8F30895F894F6
:0205B000FFCF7B
:0205B2002C001B
:00000001FF
