:100000000C94B1000C9446040C94CE000C94CE00D9
:100010000C94CE000C94CE000C94CE000C94CE0028
:100020000C94CE000C9458040C94CE000C94CE008A
:100030000C94CE000C94CE000C94CE000C94CE0008
:100040000C94CE000C94CE000C94CE000C94CE00F8
:100050000C94CE000C94CE000C94CE000C94CE00E8
:100060000C94CE000C94CE0000407A10F35A00A0FD
:10007000724E18090010A5D4E80000E87648170071
:1000800000E40B54020000CA9A3B000000E1F505B1
:10009000000080969800000040420F000000A086FB
:1000A00001000000102700000000E803000000002D
:1000B0006400000000000A000000000001000000D1
:1000C00000002C76D888DC674F0823DFC1DFAE59EB
:1000D000E1B1B796E5E3E453C63AE651997696E87E
:1000E000E6C28426EB898C9B62ED407C6FFCEFBC02
:1000F0009C9F40F2BAA56FA5F490055A2AF75C932D
:100100006B6CF9676DC11BFCE0E40D47FEF520E662
:10011000B500D0ED902E0300943577050080841E45
:10012000080000204E0A000000C80C333333330FA0
:10013000986E12831141EF8D2114893BE65516CF3D
:10014000FEE6DB18D1844B381BF77C1D901DA4BB49
:10015000E424203284725E228100C9F124ECA1E5FE
:100160003D2711241FBECFEFD8E0DEBFCDBF11E089
:10017000A0E0B1E0E8E1F2E102C005900D92AC35FB
:10018000B107D9F721E0ACE5B1E001C01D92A53679
:10019000B207E1F70E9430040C940A090C940000A5
:1001A0005F9888230CF45F9A5E9886FD5E9A5D984E
:1001B00085FD5D9A5C9884FD5C9A2D9A85E08A9510
:1001C000F1F700002D9885E08A95F1F70000089579
:1001D000CF93DF93289A2D98C82FD0E0CE010E94AC
:1001E000D000CE0182959295907F9827807F9827A6
:1001F0000E94D000DF91CF9108950F931F93CF936A
:10020000DF9300D0CDB7DEB78C011A821982E98165
:10021000FA81E80FF91F80818823D1F0E981FA8102
:10022000E00FF11F808190E00E94E80089819A81AF
:1002300001969A8389838FE391E00197F1F700C0DB
:100240000000E981FA81E00FF11F80818111E6CF82
:100250000F900F90DF91CF911F910F910895CF9341
:10026000DF9328982D98C82FD0E0CE010E94D000AF
:10027000CE0182959295907F9827807F98270E9443
:10028000D000DF91CF9108952FEF81EE94E02150BF
:1002900080409040E1F700C0000028982D9880E34E
:1002A00090E00E94D0008FE39CE90197F1F700C035
:1002B000000080E390E00E94D0008FE193E001977E
:1002C000F1F700C0000080E390E00E94D0008FE1D1
:1002D00093E00197F1F700C0000088E290E00E94EF
:1002E000D0008FE391E00197F1F700C0000088E2B1
:1002F00090E00E942F018FE391E00197F1F700C099
:10030000000088E090E00E942F018FE391E00197C8
:10031000F1F700C0000081E090E00E942F018FE71C
:100320009EE30197F1F700C0000086E090E00E9494
:100330002F018FE391E00197F1F700C000008CE0FE
:1003400090E00E942F018FE391E00197F1F700C048
:100350000000089587B1887F87B988B1876088B920
:10036000089586B196B180FD0AC091FF08C0309B08
:10037000FECF319923C081E0809364011FC086B114
:1003800096B181FD0AC090FF08C0319BFECF309925
:1003900015C082E08093640111C086B196B180FDE2
:1003A0000DC091FD0BC0309BFECF319904C081E0A0
:1003B0008093640103C082E080936401329903C09A
:1003C00083E080936401089594B1966094B92FEF0F
:1003D0003FEF3093870020938600682F70E0762FE0
:1003E0006627072E000C880B990B0E941F0523E33C
:1003F00033E343E250E40E94D4050E94EE0470937C
:10040000890060938800E0E8F0E08081806A808362
:10041000808182608083E1E8F0E080818861808370
:100420008081816080830895CF92DF92EF92FF9266
:100430000F931F93809161018111BFC0809164016E
:10044000813009F049C01092640184E90E942F01B3
:100450008FE391E00197F1F700C0000080E091E0A8
:100460000E94FD008FE391E00197F1F700C00000CA
:1004700084E90E942F018FE391E00197F1F700C01A
:10048000000080916201882321F0815080936201F5
:1004900003C084E680936201809162010E94E401BE
:1004A000809162014AE050E063E671E090E00E94D2
:1004B000610685E191E00E94FD0083E691E00E94E3
:1004C000FD008BE391E00E94FD008FE391E0019736
:1004D000F1F700C000004AC0823009F047C0109216
:1004E000640184E90E942F018FE391E00197F1F705
:1004F00000C0000080E091E00E94FD008FE391E0E9
:100500000197F1F700C0000084E90E942F018FE3FA
:1005100091E00197F1F700C00000809162018436FC
:1005200020F48F5F8093620102C01092620180917B
:1005300062010E94E401809162014AE050E063E6BA
:1005400071E090E00E94610685E191E00E94FD006B
:1005500083E691E00E94FD008BE391E00E94FD00A4
:100560008FE391E00197F1F700C0000080916401F2
:10057000833009F007C11092640181E0809361012A
:1005800084ED0E942F018FE391E00197F1F700C005
:100590000000809161014AE050E060E671E090E087
:1005A0000E94610680E691E00E94FD008FE391E0E9
:1005B0000197F1F700C00000E5C0813009F0E2C00A
:1005C00080916401813009F061C01092640180EC77
:1005D0000E942F018FE391E00197F1F700C0000026
:1005E000C0905C01D0905D01E0905E01F0905F01F1
:1005F0002DEC3CEC4CEC5DE3C701B6010E947C04A1
:1006000020E030E0A9010E94E90481110DC080E0E2
:1006100090E0A8ECB2E480935C0190935D01A0931C
:100620005E01B0935F0110C02DEC3CEC4CEC5DE33F
:10063000C701B6010E947D0460935C0170935D0167
:1006400080935E0190935F0160915C0170915D0108
:1006500080915E0190915F0103E611E021E030E0BE
:1006600043E050E00E94410682E291E00E94FD00DA
:10067000C8010E94FD008AE491E00E94FD008FE322
:1006800091E00197F1F700C0000058C0823009F0F6
:1006900055C01092640180EC0E942F018FE391E01D
:1006A0000197F1F700C000002DEC3CEC4CEC5DE351
:1006B00060915C0170915D0180915E0190915F019C
:1006C0000E947D046B017C0120E030E048EC52E4A4
:1006D0000E94CF0588234CF010925C0110925D01BE
:1006E00010925E0110925F0108C0C0925C01D0922E
:1006F0005D01E0925E01F0925F0160915C0170919A
:100700005D0180915E0190915F0103E611E021E0BF
:1007100030E043E050E00E94410682E291E00E9416
:10072000FD00C8010E94FD008AE491E00E94FD00E6
:100730008FE391E00197F1F700C000008091640120
:10074000833001F5109264011092610184ED0E94E2
:100750002F018FE391E00197F1F700C00000809135
:1007600061014AE050E060E671E090E00E946106BD
:1007700080E691E00E94FD008FE391E00197F1F7A0
:1007800000C000001F910F91FF90EF90DF90CF907D
:10079000089580EF8AB9E898E9E6F0E08081836007
:1007A0008083E098E89A0895E1EBF0E0808187602B
:1007B0008083E0E7F0E0808181608083089581E0BC
:1007C0000E942F018FE79EE30197F1F700C0000020
:1007D00080E80E942F018FE391E00197F1F700C0BC
:1007E00000008FE291E00E94FD008FE391E001970D
:1007F000F1F700C0000080EC0E942F018FE391E030
:100800000197F1F700C000008DE391E00E94FD0028
:100810008FE391E00197F1F700C0000084E90E94A6
:100820002F018FE391E00197F1F700C000008DE404
:1008300091E00E94FD008FE391E00197F1F700C085
:10084000000008958FEF84B90E94AA011092B200AF
:100850000E94D4030E94C90378940E94DF03089584
:10086000579A569A559A549A259A209A0E9444016A
:1008700080EC0E942F018FE391E00197F1F700C017
:1008800000000E9422040E941402FDCF1F920F92CA
:100890000FB60F9211248F939F9395B184E089270F
:1008A00085B99F918F910F900FBE0F901F90189553
:1008B0001F920F920FB60F9211242F933F934F93D5
:1008C0005F936F937F938F939F93AF93BF93EF93B8
:1008D000FF930E94B101FF91EF91BF91AF919F9162
:1008E0008F917F916F915F914F913F912F910F90D9
:1008F0000FBE0F901F9018955058BB27AA270E9433
:1009000094040C9495050E94870538F00E948E058A
:1009100020F039F49F3F19F426F40C9484050EF46A
:10092000E095E7FB0C947E05E92F0E94A60558F39D
:10093000BA17620773078407950720F079F4A6F5C4
:100940000C94C8050EF4E0950B2EBA2FA02D0B01C8
:10095000B90190010C01CA01A0011124FF27591B04
:1009600099F0593F50F4503E68F11A16F040A22F0A
:10097000232F342F4427585FF3CF4695379527957B
:10098000A795F0405395C9F77EF41F16BA0B620B7A
:10099000730B840BBAF09150A1F0FF0FBB1F661FC1
:1009A000771F881FC2F70EC0BA0F621F731F841F04
:1009B00048F4879577956795B795F7959E3F08F02A
:1009C000B0CF9395880F08F09927EE0F97958795EC
:1009D00008950E945A0508F481E008950E94AE052A
:1009E00088F09F5798F0B92F9927B751B0F0E1F0F0
:1009F000660F771F881F991F1AF0BA95C9F714C0A0
:100A0000B13091F00E94C805B1E008950C94C8057A
:100A1000672F782F8827B85F39F0B93FCCF38695D8
:100A200077956795B395D9F73EF490958095709535
:100A300061957F4F8F4F9F4F0895E89409C097FBB2
:100A40003EF490958095709561957F4F8F4F9F4FA5
:100A50009923A9F0F92F96E9BB279395F6958795E9
:100A600077956795B795F111F8CFFAF4BB0F11F4AC
:100A700060FF1BC06F5F7F4F8F4F9F4F16C0882353
:100A800011F096E911C0772321F09EE8872F762F89
:100A900005C0662371F096E8862F70E060E02AF0CA
:100AA0009A95660F771F881FDAF7880F96958795B6
:100AB00097F90895990F0008550FAA0BE0E8FEEF8B
:100AC00016161706E807F907C0F012161306E40712
:100AD000F50798F0621B730B840B950B39F40A260B
:100AE00061F0232B242B252B21F408950A2609F4E9
:100AF000A140A6958FEF811D811D089597F99F67ED
:100B000080E870E060E008959FEF80EC0895002495
:100B10000A941616170618060906089500240A9462
:100B200012161306140605060895092E0394000CE8
:100B300011F4882352F0BB0F40F4BF2B11F460FF77
:100B400004C06F5F7F4F8F4F9F4F089557FD9058A0
:100B5000440F551F59F05F3F71F04795880F97FB81
:100B6000991F61F09F3F79F087950895121613063B
:100B70001406551FF2CF4695F1DF08C0161617066A
:100B80001806991FF1CF869571056105089408959F
:100B9000E894BB2766277727CB0197F908950E9431
:100BA0005A0508F48FEF08950E94E7050C94950507
:100BB0000E94870538F00E948E0520F0952311F0E1
:100BC0000C947E050C94840511240C94C9050E9494
:100BD000A60570F3959FC1F3950F50E0551F629FD6
:100BE000F001729FBB27F00DB11D639FAA27F00D86
:100BF000B11DAA1F649F6627B00DA11D661F829FAD
:100C00002227B00DA11D621F739FB00DA11D621F91
:100C1000839FA00D611D221F749F3327A00D611DAE
:100C2000231F849F600D211D822F762F6A2F112490
:100C30009F5750409AF0F1F088234AF0EE0FFF1FC3
:100C4000BB1F661F771F881F91505040A9F79E3F1A
:100C5000510580F00C947E050C94C9055F3FE4F3C8
:100C6000983ED4F3869577956795B795F795E79570
:100C70009F5FC1F7FE2B880F911D9695879597F979
:100C80000895EF920F931F93CF93DF93E80147FDF1
:100C900002C034E001C034E1042E000C550B57FFB4
:100CA00003C0519541955109E32E022F242FAE0127
:100CB0000E949106CE01DF91CF911F910F91EF908D
:100CC00008954532510520F4423010F00C946C0622
:100CD000FB011082CB010895BB274A3031F49923E0
:100CE00022F4BDE2909581959F4F0C947806BB2726
:100CF000FB015527AA27880F991FAA1FA41710F0D8
:100D0000A41B83955051B9F7A05DAA3308F0A95DE3
:100D1000A193009779F7B111B1931192CB010C9483
:100D2000C308A9E0B0E0E7E9F6E00C94D9086A014D
:100D3000122FB02E2BE3201720F0FF24F394F00E97
:100D400002C02CE3F22E0F2D27E0AE014F5F5F4F64
:100D50000E94EB07BC014981842F8970813031F0FA
:100D6000E1FC06C0E0FE06C090E205C09DE203C0C3
:100D70009BE201C090E05E2D507143FF3CC0911199
:100D800002C083E001C084E0811718F4212F281BE2
:100D900001C020E051110BC0F601822F30E2882300
:100DA00019F031938150FBCFC20ED11C20E0992362
:100DB00029F0D6019C93F60131966F01C601039686
:100DC000E2FE0AC03EE4D6013C9341E411964C9306
:100DD000119712963C9306C03EE6F601308341E639
:100DE00041833283FC01322F40E2332309F442C0B5
:100DF00041933150FACF42FF44C0911102C083E0C9
:100E000001C084E0811718F4212F281B01C020E0C5
:100E100051110BC0F601822F30E2882319F0319373
:100E20008150FBCFC20ED11C20E0992329F0D601BE
:100E30009C93F60131966F01C6010396E2FE0BC04A
:100E400039E4D6013C933EE411963C93119736E485
:100E500012963C9307C039E6F60130833EE63183B3
:100E600036E63283FC01322F40E2332319F04193FE
:100E70003150FBCFFC01E20FF11D10828EEF9FEF8E
:100E8000A6C021E030E0911102C020E030E016164B
:100E900017061CF4FB01319602C0E1E0F0E02E0FD2
:100EA0003F1FBB2021F0EB2DF0E0319602C0E0E0C7
:100EB000F0E02E0F3F1FE12FF0E02E173F071CF44C
:100EC000121B212F01C020E08E2D887159F4F601EC
:100ED000822F30E2882319F031938150FBCFC20E6C
:100EE000D11C20E0992329F0D6019C93F60131967C
:100EF0006F0151110BC0F601822F90E3882319F086
:100F000091938150FBCFC20ED11C20E00F2D060F14
:100F10009A81342F307144FF03C0913309F401509A
:100F2000101624F4093018F008E001C001E0AB010C
:100F300077FF02C040E050E0FB01E41BF50BA1E0AD
:100F4000B0E0AC0FBD1FEA0FFB1F8EE2A82E4B01D5
:100F5000801A91080B2D10E01195019511094F3F52
:100F6000BFEF5B0721F4D601AC9211966D016417B7
:100F700075072CF08416950614F4818101C080E376
:100F8000415051093196D60111967D014017510704
:100F900024F0D6018C936701E2CF6417750739F40A
:100FA000963320F4953319F4311101C081E3F60131
:100FB0008083F701822F90E2882319F0919381506A
:100FC000FBCFF701E20FF11D108280E090E029963F
:100FD000ECE00C94F508283008F027E03327DA011C
:100FE000990F311D87FD916000966105710539F4F7
:100FF00032602E5F3D9330E32A95E1F708959F3FDD
:1010000030F080387105610509F03C5F3C5F3D932D
:10101000913008F08068911DDF93CF931F930F9359
:10102000FF92EF92192F987F9695E92F96959695B6
:10103000E90FFF27EE53FF4F99273327EE24FF24B4
:10104000A701E70105900894079428F4360FE71EDE
:10105000F81E491F511D660F771F881F991F0694A0
:10106000A1F70590079428F4E70EF81E491F561FB4
:10107000C11D770F881F991F661F0694A1F7059061
:10108000079428F4F80E491F561FC71FD11D880F5B
:10109000991F661F771F0694A1F70590079420F407
:1010A000490F561FC71FD81F990F661F771F881F2C
:1010B0000694A9F784911095177041F0D695C795BD
:1010C00057954795F794E7941A95C1F7E8E6F0E04D
:1010D00068941590159135916591959105907FE2F1
:1010E0007395E118F10A430B560BC90BD009C0F7F1
:1010F000E10CF11E431F561FC91FD01D7EF4703333
:1011000011F48A95E6CFE894015030F0080F0AF404
:101110000027021708F4202F2395022F7A3328F096
:1011200079E37D932A95E9F710C07D932A9589F696
:10113000069497956795379517951794E118F10AD6
:10114000430B560BC90BD00998F023957E917395EC
:101150007A3308F070E37C932013B8F77E917061C6
:101160007D9330F0839571E37D9370E32A95E1F7E9
:101170001124EF90FF900F911F91CF91DF9199274C
:1011800087FD90950895DC01FC01672F719177230D
:10119000E1F7329704C07C916D9370836291AE1732
:1011A000BF07C8F308952F923F924F925F926F92BC
:1011B0007F928F929F92AF92BF92CF92DF92EF92E7
:1011C000FF920F931F93CF93DF93CDB7DEB7CA1B68
:1011D000DB0B0FB6F894DEBF0FBECDBF09942A8893
:1011E000398848885F846E847D848C849B84AA843B
:1011F000B984C884DF80EE80FD800C811B81AA81C8
:10120000B981CE0FD11D0FB6F894DEBF0FBECDBF92
:08121000ED010895F894FFCFF1
:1012180020202020202020202020202020202020C6
:10122800202020200044757479206379636C653A26
:1012380020004672657175656E7469653A200041D3
:101248006D706C69747564653A2030250046726566
:101258007175656E7469653A2030487A0044757412
:0C12680079206379636C653A2030250022
:00000001FF
