:100000000C9434000C9451000C944E020C9451004A
:100010000C9451000C9451000C9451000C9451001C
:100020000C9451000C946D010C9451000C945100EF
:100030000C9451000C943A020C9451000C94510011
:100040000C9451000C9451000C9451000C945100EC
:100050000C9451000C9451000C9451000C945100DC
:100060000C9451000C94510011241FBECFEFD8E026
:10007000DEBFCDBF11E0A0E0B1E0E4E4F5E002C0F6
:1000800005900D92A230B107D9F721E0A2E0B1E0CE
:1000900001C01D92A530B207E1F70E94FC010C944B
:1000A000A0020C9400005F9888230CF45F9A5E987D
:1000B00086FD5E9A5D9885FD5D9A5C9884FD5C9AEC
:1000C000299A85E08A95F1F70000299885E08A95BC
:1000D000F1F700000895CF93DF93289A2998C82F4D
:1000E000D0E0CE010E945300CE0182959295907F80
:1000F0009827807F98270E945300DF91CF91089521
:100100000F931F93CF93DF9300D0CDB7DEB78C0151
:100110001A821982E981FA81E80FF91F8081882308
:10012000D1F0E981FA81E00FF11F808190E00E9417
:100130006B0089819A8101969A8389838FE391E08C
:100140000197F1F700C00000E981FA81E00FF11F8B
:1001500080818111E6CF0F900F90DF91CF911F9199
:100160000F910895CF93DF9328982998C82FD0E056
:10017000CE010E945300CE0182959295907F9827E0
:10018000807F98270E945300DF91CF9108952FEF31
:1001900081EE94E0215080409040E1F700C00000E3
:1001A0002898299880E390E00E9453008FE39CE90F
:1001B0000197F1F700C0000080E390E00E94530037
:1001C0008FE193E00197F1F700C0000080E390E039
:1001D0000E9453008FE193E00197F1F700C0000007
:1001E00088E290E00E9453008FE391E00197F1F7DD
:1001F00000C0000088E290E00E94B2008FE391E02E
:100200000197F1F700C0000088E090E00E94B20082
:100210008FE391E00197F1F700C0000081E090E0EA
:100220000E94B2008FE79EE30197F1F700C0000043
:1002300086E090E00E94B2008FE391E00197F1F731
:1002400000C000008CE090E00E94B2008FE391E0DB
:100250000197F1F700C00000089587B1887F87B942
:1002600088B1876088B9089586B196B180FD0AC0CB
:1002700091FF08C0309BFECF319923C081E080936D
:100280000401089586B196B181FD0AC090FF08C0AF
:10029000319BFECF309915C082E080930401089510
:1002A00086B196B180FD0DC091FD0BC0309BFECF95
:1002B000319904C081E080930401089582E0809325
:1002C00004010895E1EBF0E0808187608083E0E73E
:1002D000F0E080818160808308951F920F920FB6B5
:1002E0000F9211242F933F934F935F936F937F93BC
:1002F0008F939F93AF93BF93EF93FF930E9434012B
:10030000FF91EF91BF91AF919F918F917F916F91ED
:100310005F914F913F912F910F900FBE0F901F90C3
:10032000189580910401813051F5109204010E94CA
:10033000B2008FE79EE30197F1F700C0000080EC68
:100340000E94B2008FE391E00197F1F700C0000036
:10035000809102018150809302014AE050E063E005
:1003600071E090E00E94600283E091E00E948000D2
:100370008FE391E00197F1F700C00000089582300B
:1003800051F51092040181E00E94B2008FE79EE3D4
:100390000197F1F700C0000080EC0E94B2008FE3EB
:1003A00091E00197F1F700C00000809102018F5F9A
:1003B000809302014AE050E063E071E090E00E9427
:1003C000600283E091E00E9480008FE391E001975A
:1003D000F1F700C0000008950E942D011092B200B4
:1003E0000E94620180EF8AB9E9E6F0E080818160D5
:1003F0008083E89A78940895579A569A559A549A11
:10040000219A209A0E94C70080EC0E94B2008FE3DC
:1004100091E00197F1F700C00000809100018F5F2B
:10042000809300019FEF23ED80E3915020408040B6
:10043000E1F700C000008FEF84B988E59EE9909352
:100440008500809384001092800083E08093810077
:1004500081E080936F0078940E94EC019FEF21EE81
:1004600084E0915020408040E1F700C000000E94ED
:100470009101F4CF1F920F920FB60F9211248F9318
:100480009F9388E59EE990938500809384009F91D7
:100490008F910F900FBE0F901F9018951F920F9283
:1004A0000FB60F9211248F939F9395B180E1892706
:1004B00085B99F918F910F900FBE0F901F90189547
:1004C0004532510520F4423010F00C946B02FB01D0
:1004D0001082CB010895BB274A3031F4992322F4CE
:1004E000BDE2909581959F4F0C947702BB27FB014D
:1004F0005527AA27880F991FAA1FA41710F0A41B1D
:1005000083955051B9F7A05DAA3308F0A95DA19376
:10051000009779F7B111B1931192CB010C9490022D
:10052000DC01FC01672F71917723E1F7329704C05A
:100530007C916D9370836291AE17BF07C8F30895E5
:04054000F894FFCF5D
:020544002C0089
:00000001FF
