S01700004763634170706C69636174696F6E322E737265635A
S11300000C9434000C9449000C9449000C9449005D
S11300100C9449000C9449000C9449000C94490038
S11300200C9449000C9449000C9449000C94490028
S11300300C9449000C9453010C9449000C9449000D
S11300400C9449000C9449000C9449000C94490008
S11300500C9449000C9449000C9449000C944900F8
S11300600C9449000C94490011241FBECFEFD8E032
S1130070DEBFCDBF11E0A0E0B1E0EEE1F3E002C0ED
S113008005900D92A430B107D9F70E9425010C9474
S11300908D010C9400005F9888230CF45F9A5E989D
S11300A086FD5E9A5D9885FD5D9A5C9884FD5C9AF8
S11300B0299A85E08A95F1F70000299885E08A95C8
S11300C0F1F700000895CF93DF93289A2998C82F59
S11300D0D0E0CE010E944B00CE0182959295907F94
S11300E09827807F98270E944B00DF91CF91089535
S11300F00F931F93CF93DF9300D0CDB7DEB78C015E
S11301001A821982E981FA81E80FF91F8081882314
S1130110D1F0E981FA81E00FF11F808190E00E9423
S1130120630089819A8101969A8389838FE391E0A0
S11301300197F1F700C00000E981FA81E00FF11F97
S113014080818111E6CF0F900F90DF91CF911F91A5
S11301500F910895CF93DF9328982998C82FD0E062
S1130160CE010E944B00CE0182959295907F9827F4
S1130170807F98270E944B00DF91CF9108952FEF45
S113018081EE94E0215080409040E1F700C00000EF
S11301902898299880E390E00E944B008FE39CE923
S11301A00197F1F700C0000080E390E00E944B004B
S11301B08FE193E00197F1F700C0000080E390E045
S11301C00E944B008FE193E00197F1F700C000001B
S11301D088E290E00E944B008FE391E00197F1F7F1
S11301E000C0000088E290E00E94AA008FE391E042
S11301F00197F1F700C0000088E090E00E94AA0097
S11302008FE391E00197F1F700C0000081E090E0F6
S11302100E94AA008FE79EE30197F1F700C0000057
S113022086E090E00E94AA008FE391E00197F1F745
S113023000C000008CE090E00E94AA008FE391E0EF
S11302400197F1F700C000000895579A569A559AFD
S1130250549A219A209A0E94BF008FE391E001975B
S1130260F1F700C00000809100018F5F80930001CE
S11302709FEF23ED80E3915020408040E1F700C0E0
S113028000008FEF84B988E59EE990938500809300
S113029084001092800083E08093810081E0809349
S11302A06F007894FFCF1F920F920FB60F92112414
S11302B02F933F934F935F936F937F938F939F936A
S11302C0AF93BF93EF93FF9380E80E94AA0081E06D
S11302D091E00E947800809100018F5F809300017B
S11302E00E94630095B180E1892785B988E59EE97C
S11302F09093850080938400FF91EF91BF91AF911B
S11303009F918F917F916F915F914F913F912F9129
S11103100F900FBE0F901F901895F894FFCF1A
S107031E2C2000008B
S9030000FC
