S01700004763634170706C69636174696F6E322E737265635A
S11300000C9434000C9476020C9451000C9451001E
S11300100C9451000C9451000C9451000C94510018
S11300200C9451000C9488020C9451000C945100CF
S11300300C9451000C9451000C9451000C945100F8
S11300400C9451000C9451000C9451000C945100E8
S11300500C9451000C9451000C9451000C945100D8
S11300600C9451000C94510011241FBECFEFD8E022
S1130070DEBFCDBF11E0A0E0B1E0E0E3F8E002C0F4
S113008005900D92AA33B107D9F721E0AAE3B1E0B4
S113009001C01D92AD33B207E1F70E9460020C94D7
S11300A016040C9400005F9888230CF45F9A5E9801
S11300B086FD5E9A5D9885FD5D9A5C9884FD5C9AE8
S11300C02D9A85E08A95F1F700002D9885E08A95B0
S11300D0F1F700000895CF93DF93289A2D98C82F45
S11300E0D0E0CE010E945300CE0182959295907F7C
S11300F09827807F98270E945300DF91CF9108951D
S11301000F931F93CF93DF9300D0CDB7DEB78C014D
S11301101A821982E981FA81E80FF91F8081882304
S1130120D1F0E981FA81E00FF11F808190E00E9413
S11301306B0089819A8101969A8389838FE391E088
S11301400197F1F700C00000E981FA81E00FF11F87
S113015080818111E6CF0F900F90DF91CF911F9195
S11301600F910895CF93DF9328982D98C82FD0E04E
S1130170CE010E945300CE0182959295907F9827DC
S1130180807F98270E945300DF91CF9108952FEF2D
S113019081EE94E0215080409040E1F700C00000DF
S11301A028982D9880E390E00E9453008FE39CE907
S11301B00197F1F700C0000080E390E00E94530033
S11301C08FE193E00197F1F700C0000080E390E035
S11301D00E9453008FE193E00197F1F700C0000003
S11301E088E290E00E9453008FE391E00197F1F7D9
S11301F000C0000088E290E00E94B2008FE391E02A
S11302000197F1F700C0000088E090E00E94B2007E
S11302108FE391E00197F1F700C0000081E090E0E6
S11302200E94B2008FE79EE30197F1F700C000003F
S113023086E090E00E94B2008FE391E00197F1F72D
S113024000C000008CE090E00E94B2008FE391E0D7
S11302500197F1F700C00000089587B1887F87B93E
S113026088B1876088B9089586B196B180FD0AC0C7
S113027091FF08C0309BFECF319923C081E0809369
S11302803C01089586B196B181FD0AC090FF08C073
S1130290319BFECF309915C082E080933C010895D4
S11302A086B196B180FD0DC091FD0BC0309BFECF91
S11302B0319904C081E080933C01089582E08093E9
S11302C03C01089594B1966094B92FEF3FEF3093B9
S11302D0870020938600682F70E0762F6627072E0C
S11302E0000C880B990B0E94DD0223E333E343E205
S11302F050E40E9441030E94AC0270938900609311
S11303008800E0E8F0E08081806A808380818260F8
S11303108083E1E8F0E0808188618083808181606E
S11303208083089580913C018130F1F510923C0165
S11303300E94B2008FE79EE30197F1F700C000002E
S113034080E80E94B2008FE391E00197F1F700C0CA
S1130350000080913A01882321F0815080933A0172
S113036003C084E680933A0180913A010E946201BD
S113037080913A014AE050E06BE371E090E00E9422
S1130380D60380E091E00E9480008BE391E00E941C
S1130390800089E191E00E9480008FE391E0019761
S11303A0F1F700C0000008958230E9F510923C0195
S11303B081E00E94B2008FE79EE30197F1F700C04D
S11303C0000080E80E94B2008FE391E00197F1F70A
S11303D000C0000080913A01843620F48F5F80933E
S11303E03A0102C010923A0180913A010E946201DE
S11303F080913A014AE050E06BE371E090E00E94A2
S1130400D60380E091E00E9480008BE391E00E949B
S1130410800089E191E00E9480008FE391E00197E0
S1130420F1F700C00000089580EF8AB9E898E9E682
S1130430F0E0808183608083E098E89A0895E1EB9E
S1130440F0E0808187608083E0E7F0E08081816074
S11304508083089580E80E94B2008DE091E00E94BC
S113046080008FE391E00197F1F700C0000080EC79
S11304700E94B2008BE191E00E9480008FE391E042
S11304800197F1F700C0000084E90E94B2008AE2FB
S113049091E00E9480008FE391E00197F1F700C0A2
S11304A0000008958FEF84B90E942D011092B200CC
S11304B00E941F020E94140278940E942A02089546
S11304C0579A569A559A549A259A209A0E94C70088
S11304D080EC0E94B2008FE391E00197F1F700C035
S11304E000000E9452020E949201FDCF1F920F92BF
S11304F00FB60F9211248F939F9395B184E08927AF
S113050085B99F918F910F900FBE0F901F901895F2
S11305101F920F920FB60F9211242F933F934F9374
S11305205F936F937F938F939F93AF93BF93EF9357
S1130530FF930E943401FF91EF91BF91AF919F917E
S11305408F917F916F915F914F913F912F910F9078
S11305500FBE0F901F9018950E94200388F09F579C
S113056098F0B92F9927B751B0F0E1F0660F771FD3
S1130570881F991F1AF0BA95C9F714C0B13091F0C9
S11305800E943A03B1E008950C943A03672F782F40
S11305908827B85F39F0B93FCCF38695779567958E
S11305A0B395D9F73EF490958095709561957F4FFA
S11305B08F4F9F4F0895E89409C097FB3EF49095A0
S11305C08095709561957F4F8F4F9F4F9923A9F028
S11305D0F92F96E9BB279395F695879577956795B7
S11305E0B795F111F8CFFAF4BB0F11F460FF1BC0FB
S11305F06F5F7F4F8F4F9F4F16C0882311F096E98E
S113060011C0772321F09EE8872F762F05C066233B
S113061071F096E8862F70E060E02AF09A95660FF4
S1130620771F881FDAF7880F9695879597F90895AD
S113063057FD9058440F551F59F05F3F71F047958F
S1130640880F97FB991F61F09F3F79F08795089574
S1130650121613061406551FF2CF4695F1DF08C093
S1130660161617061806991FF1CF869571056105B0
S113067008940895E894BB2766277727CB0197F958
S113068008950E9454030C94C5030E94B70338F0E4
S11306900E94BE0320F0952311F00C94AE030C9439
S11306A0B40311240C943B030E94180370F3959F28
S11306B0C1F3950F50E0551F629FF001729FBB2755
S11306C0F00DB11D639FAA27F00DB11DAA1F649FF1
S11306D06627B00DA11D661F829F2227B00DA11DA4
S11306E0621F739FB00DA11D621F839FA00D611D2A
S11306F0221F749F3327A00D611D231F849F600D4B
S1130700211D822F762F6A2F11249F5750409AF073
S1130710F1F088234AF0EE0FFF1FBB1F661F771FFF
S1130720881F91505040A9F79E3F510580F00C94CA
S1130730AE030C943B035F3FE4F3983ED4F38695F9
S113074077956795B795F795E7959F5FC1F7FE2B6A
S1130750880F911D9695879597F9089597F99F6746
S113076080E870E060E008959FEF80EC0895002435
S11307700A941616170618060906089500240A9402
S113078012161306140605060895092E0394000C88
S113079011F4882352F0BB0F40F4BF2B11F460FF17
S11307A004C06F5F7F4F8F4F9F4F089545325105AF
S11307B020F4423010F00C94E103FB011082CB01D1
S11307C00895BB274A3031F4992322F4BDE2909571
S11307D081959F4F0C94ED03BB27FB015527AA2756
S11307E0880F991FAA1FA41710F0A41B83955051BA
S11307F0B9F7A05DAA3308F0A95DA193009779F732
S1130800B111B1931192CB010C940604DC01FC01EB
S1130810672F71917723E1F7329704C07C916D9330
S113082070836291AE17BF07C8F30895F894FFCFA1
S113083044757479206379636C653A2000416D7066
S11308406C69747564653A2030250046726571756B
S1130850656E7469653A20302500447574792063A7
S10D086079636C653A20302500002E
S9030000FC
